:020000040000fa
:080000000002040000000000f2
:020000040000fa
:04000800c20300002f
:020000040000fa
:04000c00c20300002b
:020000040000fa
:04001000c203000027
:020000040000fa
:04001400c203000023
:020000040000fa
:04001800c20300001f
:020000040000fa
:04001c00c20300001b
:020000040000fa
:04002000c203000017
:020000040000fa
:04002400c203000013
:020000040000fa
:04002800c20300000f
:020000040000fa
:04002c00c802000006
:020000040000fa
:04003000c203000007
:020000040000fa
:04003400c203000003
:020000040000fa
:04003800c2030000ff
:020000040000fa
:04003c00c2030000fb
:020000040000fa
:04004000c2030000f7
:020000040000fa
:04004400a80300000d
:020000040000fa
:04004800c2030000ef
:020000040000fa
:04004c00c2030000eb
:020000040000fa
:04005000c2030000e7
:020000040000fa
:04005400c2030000e3
:020000040000fa
:04005800c2030000df
:020000040000fa
:04005c00c2030000db
:020000040000fa
:04006000c2030000d7
:020000040000fa
:04006400c2030000d3
:020000040000fa
:04006800c2030000cf
:020000040000fa
:04006c00c2030000cb
:020000040000fa
:04007000c2030000c7
:020000040000fa
:04007400c2030000c3
:020000040000fa
:04007800c2030000bf
:020000040000fa
:04007c00c2030000bb
:020000040000fa
:04008000c2030000b7
:020000040000fa
:04008400c2030000b3
:020000040000fa
:04008800c2030000af
:020000040000fa
:04008c00c2030000ab
:020000040000fa
:04009000c2030000a7
:020000040000fa
:04009400c2030000a3
:020000040000fa
:04009800c20300009f
:020000040000fa
:04009c00c20300009b
:020000040000fa
:0400a000c203000097
:020000040000fa
:0400a400c203000093
:020000040000fa
:0400a800c20300008f
:020000040000fa
:0400ac00c20300008b
:020000040000fa
:0400b000c203000087
:020000040000fa
:0400b400c203000083
:020000040000fa
:0400b800c20300007f
:020000040000fa
:0400bc00c20300007b
:020000040000fa
:0400c000c203000077
:020000040000fa
:0400c400c203000073
:020000040000fa
:0400c800c20300006f
:020000040000fa
:0400cc00c20300006b
:020000040000fa
:0400d000c203000067
:020000040000fa
:0400d400c203000063
:020000040000fa
:0400d800c20300005f
:020000040000fa
:0400dc00c20300005b
:020000040000fa
:0400e000c203000057
:020000040000fa
:0400e400c203000053
:020000040000fa
:0400e800c20300004f
:020000040000fa
:0400ec00c20300004b
:020000040000fa
:0400f000c203000047
:020000040000fa
:0400f400c203000043
:020000040000fa
:0400f800c20300003f
:020000040000fa
:0400fc00c20300003b
:020000040000fa
:04010000c203000036
:020000040000fa
:04010400c203000032
:020000040000fa
:04010800c20300002e
:020000040000fa
:04010c00c20300002a
:020000040000fa
:04011000c203000026
:020000040000fa
:04011400c203000022
:020000040000fa
:04011800c20300001e
:020000040000fa
:04011c00c20300001a
:020000040000fa
:04012000c203000016
:020000040000fa
:04012400c203000012
:020000040000fa
:04012800c20300000e
:020000040000fa
:04012c00c20300000a
:020000040000fa
:04013000c203000006
:020000040000fa
:04013400c203000002
:020000040000fa
:04013800c2030000fe
:020000040000fa
:04013c00c2030000fa
:020000040000fa
:04014000c2030000f6
:020000040000fa
:04014400c2030000f2
:020000040000fa
:04014800c2030000ee
:020000040000fa
:04020800c20300002d
:020000040000fa
:04020c00c203000029
:020000040000fa
:04021000c203000025
:020000040000fa
:04021400c203000021
:020000040000fa
:04021800c20300001d
:020000040000fa
:04021c00c203000019
:020000040000fa
:04022000c203000015
:020000040000fa
:04022400c203000011
:020000040000fa
:04022800c20300000d
:020000040000fa
:04022c00c802000004
:020000040000fa
:04023000c203000005
:020000040000fa
:04023400c203000001
:020000040000fa
:04023800c2030000fd
:020000040000fa
:04023c00c2030000f9
:020000040000fa
:04024000c2030000f5
:020000040000fa
:04024400a80300000b
:020000040000fa
:04024800c2030000ed
:020000040000fa
:04024c00c2030000e9
:020000040000fa
:04025000c2030000e5
:020000040000fa
:04025400c2030000e1
:020000040000fa
:04025800c2030000dd
:020000040000fa
:04025c00c2030000d9
:020000040000fa
:04026000c2030000d5
:020000040000fa
:04026400c2030000d1
:020000040000fa
:04026800c2030000cd
:020000040000fa
:04026c00c2030000c9
:020000040000fa
:04027000c2030000c5
:020000040000fa
:04027400c2030000c1
:020000040000fa
:04027800c2030000bd
:020000040000fa
:04027c00c2030000b9
:020000040000fa
:04028000c2030000b5
:020000040000fa
:04028400c2030000b1
:020000040000fa
:04028800c2030000ad
:020000040000fa
:04028c00c2030000a9
:020000040000fa
:04029000c2030000a5
:020000040000fa
:04029400c2030000a1
:020000040000fa
:04029800c20300009d
:020000040000fa
:04029c00c203000099
:020000040000fa
:0402a000c203000095
:020000040000fa
:0402a400c203000091
:020000040000fa
:0402a800c20300008d
:020000040000fa
:0402ac00c203000089
:020000040000fa
:0402b000c203000085
:020000040000fa
:0402b400c203000081
:020000040000fa
:0402b800c20300007d
:020000040000fa
:0402bc00c203000079
:020000040000fa
:0402c000c203000075
:020000040000fa
:0402c400c203000071
:020000040000fa
:0402c800c20300006d
:020000040000fa
:0402cc00c203000069
:020000040000fa
:0402d000c203000065
:020000040000fa
:0402d400c203000061
:020000040000fa
:0402d800c20300005d
:020000040000fa
:0402dc00c203000059
:020000040000fa
:0402e000c203000055
:020000040000fa
:0402e400c203000051
:020000040000fa
:0402e800c20300004d
:020000040000fa
:0402ec00c203000049
:020000040000fa
:0402f000c203000045
:020000040000fa
:0402f400c203000041
:020000040000fa
:0402f800c20300003d
:020000040000fa
:0402fc00c203000039
:020000040000fa
:04030000c203000034
:020000040000fa
:04030400c203000030
:020000040000fa
:04030800c20300002c
:020000040000fa
:04030c00c203000028
:020000040000fa
:04031000c203000024
:020000040000fa
:04031400c203000020
:020000040000fa
:04031800c20300001c
:020000040000fa
:04031c00c203000018
:020000040000fa
:04032000c203000014
:020000040000fa
:04032400c203000010
:020000040000fa
:04032800c20300000c
:020000040000fa
:04032c00c203000008
:020000040000fa
:04033000c203000004
:020000040000fa
:04033400c203000000
:020000040000fa
:04033800c2030000fc
:020000040000fa
:04033c00c2030000f8
:020000040000fa
:04034000c2030000f4
:020000040000fa
:04034400c2030000f0
:020000040000fa
:04034800c2030000ec
:020000040000fa
:10040000ef9120000e7f22000e0188000000000006
:10041000000020000000e000020032000001200087
:100420002002880014000700d80007000000e00048
:1004300003003a00c04d20000100200002003700f8
:100440000000200001002000810f70000100320038
:1004500014000700000020000000e000020032004d
:100460000000020000000000e6030200000000009f
:100470000040da000000fe004440a9000000200017
:100480000000e0000300320000002000a00188000e
:100490004440a800000006008a1f78008b1f7800e7
:1004a0000000060091018800800478000000eb0045
:1004b0001a003700e284440032a0b4009905ba0063
:1004c000e284440032a0b4009906ba00e2844400f9
:1004d00032a0b4000006eb00476fde00fd07b2005b
:1004e000636ce10003003a00ebff07000000eb0043
:1004f0000a003700606ce10004003a00005deb0088
:100500008b05e900fdff3e00040037006168e10053
:10051000010032000086eb000b00070019c7ba008b
:100520001905ba000e04e00003003a000a00e000da
:10053000e0ff3a0000000600fe07b2009e018800be
:100540008a047800f5ff3700395dba008b05e900b1
:100550000c003200295dba008b05e900080032006a
:100560000c00e00003003a00e284440032a0b40032
:10057000f5ff370019ddba008b05e900faff3a00f4
:100580008904e800e184440032a0b40000000600c1
:10059000809fbe00829fbe00849fbe00869fbe00db
:1005a0003400f80000002000a00188000000fa00dc
:1005b0008420a900604080000000e00016003a009e
:1005c000000a80006102b80000408000cf80de0099
:1005d00042422f000289b900020178006003b9008d
:1005e000860178000301410043422f000300b80058
:1005f000010141008200780004004000858048002d
:100600002040880031408800604080000000e80001
:1006100060408800470037000c28ef00000a800087
:100620006102b80000408000cf80de0042422f000f
:100630000289b900020178006003b90086017800e0
:100640000301410043422f000300b80001014100b3
:100650008200780004004000858048004040880007
:10066000514088004240800053408000204080007c
:10067000314080000001510081815900c0072000f5
:1006800001002000800f5100818f590029003600a1
:100690004240800053408000204080003140800074
:1006a0000001510081815900101625000100200031
:1006b000800f5100818f59000a003e0010408000d9
:1006c0008191200032c5b300827078001040800014
:1006d0000000e800104088000621ef000028ef002d
:1006e00014003700424080005340800020408000ca
:1006f00031408000000151008181590040422f00ab
:1007000001002000800f5100818f590009003e0038
:100710001040800081912000c2c4b3008270780034
:10072000104080000000e800104088000621ef0023
:100730000028ef000080fa003400f9004f03be00eb
:100740004f02be004f01be004f00be000040060039
:10075000801f78003400f80000002000a00188000d
:100760000000fa00004080000000e800004088001f
:1007700084e0a9000080fa003400f9004f007800fe
:10078000004006000040da000000fe000000050006
:020000040000fa
:100790000000fa00213a8000f08f2f0000806000f6
:1007a000203a8800f0ff290060198800f00120003d
:1007b0000016880030002200401688000080eb0000
:1007c000201688000080fa00000006000a00fa00e7
:1007d000efff07003b010700ea0007000040eb00c5
:1007e00010479800030037000000000001003700a8
:1007f00000000000000a80006102b8000040800094
:10080000cf80de0032422f000289b9000201780059
:100810006003b900860178000301410033422f00d4
:100820000300b8000101410082007800040040008c
:100830008580480020079800310798002e0190001d
:10084000be019000b0c62d0021002000800f510095
:10085000818f5900e4ff360051168000000022000d
:10086000008060000000e000e1ff32008091200085
:1008700027010700004f98008e489000b0c3b300d6
:1008800080cf500007003a0010c0b3001047980016
:10089000c0002000eb0007000040eb00004f780094
:1008a000310037008e489000c0c7b30080cf5000a1
:1008b0000b003a0010002000e2000700f0002000ca
:1008c000e000070020002000de0007000040eb00f1
:1008d000104798000040eb00004f780022003700de
:1008e0008e48900030c2b30080cf50000600320026
:1008f0001e409000e14f5000030032000e4890006f
:10090000e6000700180037001e4078000004e000f1
:10091000080032001e409000e14f500005003200f8
:1009200000c2b300dd0007000040eb00004f78007c
:100930000d0037008e48900030c2b30080cf5000c9
:10094000080032001e409000e14f500005003200c8
:100950000e489000d10007000040eb00004f7800e7
:10096000010037001e4fe8000000eb001007980060
:100970000000eb001007980008003700819120006c
:100980001e0090000080400001c3b30001487800c1
:100990001e0090000000e800100798001e00900064
:1009a000e50f5000f5ff34000621ef000028ef00ae
:0809b0000228ef008fff370061
:020000040000fa
:1009b8000e0800000a010000020000004142430046
:1009c80044454600474849004a4b4c004d4e4f00ad
:1009d800505152005354550056575800595a310037
:1009e8003233340035363700383930007c3b530019
:1009f8004c30300030304c005353530030304c00f2
:100a0800534c530030304c005353300030305300b7
:100a18003030300030305300534c530030304c00ed
:100a28004c53300030305300535353003030530090
:100a380053303000303053004c4c4c0030304c00b8
:100a4800534c3000303053004c53530030304c007e
:100a58004c30300030304c005330300030304c00d7
:100a68004c4c3000303053004c4c530030304c006c
:100a78004c534c00303053004c533000303053004e
:100a88005353300030304c00303030003030530099
:100a9800534c30003030530053534c003030530027
:100aa8004c4c300030304c0053534c0030304c002c
:100ab800534c4c0030304c004c53530030305300f2
:100ac8004c4c4c004c305300534c4c004c305300b1
:100ad80053534c004c305300535353004c30530085
:100ae8005353530053304c005353530053304c006e
:100af8004c53530053304c004c4c530053304c0073
:100b08004c4c4c0053304c004c4c4c004c304c007e
:100b1800534c53004c30530053534c00534c00007b
:100b28001809000006000000020000003030300004
:100b380030303000000800000e0000000000000007
:040b480000000000a9
:020000040000fa
:100b4c000400fa00100798000000eb00000f78007a
:100b5c0003003700793e0900000000001e0fe8007a
:100b6c001e0090009e007800808f5000f9ff350029
:100b7c000080fa00000006000000fa000080eb0084
:100b8c0060198800113a8000f00b20000081600091
:100b9c006004200071052000237420008049780037
:100bac0081497800824978007134800000fe2f0062
:100bbc0000806000d000b30070348800103a8000d0
:100bcc00000178000260a000600420007105200084
:100bdc00237420008049780081497800824978008c
:100bec00c9a2a80069a0a8001021ef00810880000c
:100bfc000003200001007000800888000621ef002f
:100c0c0030422f006008880094e0a8004221ef00d9
:100c1c0042e1a8009420a80011e1a800110a80006c
:100c2c0080ff2f00008060000000a000100a8800e8
:100c3c000080fa00000006000400fa00100798007b
:100c4c001e0090004200dd00000f7800611680004d
:100c5c001e00780001007000601688001000200053
:100c6c00b7ff07006016800000f0a0006016880037
:100c7c0010002000b2ff0700611680003000260033
:100c8c0000806000601688000080fa0000000600fa
:100c9c000400fa00204798002e4090000000fb0052
:100cac00000f78001e90a0001e007800e2ff0700e5
:100cbc000080fa00000006000200fa0041168000d5
:100ccc00300027000080600040168800400620009d
:100cdc009bff070010002000000f7800f0002000a0
:100cec00d5ff070010002000d3ff070020002000d4
:100cfc00d1ff07002000200091ff07000080fa00c0
:100d0c00000006000600fa00200798000000eb0027
:100d1c00000f7800200037000000eb00100798004f
:100d2c00170037001e0078006600b90080007800bc
:100d3c001e0090000080400041832000e1407800bc
:100d4c001e0090002e019000000041001040780021
:100d5c0080cf50000e003a001e009000e50f5000ae
:100d6c0004003a00e08020001e0040001040780093
:100d7c000e0037001e0090000000e80010079800dd
:100d8c001e009000e50f5000e6ff34000100370014
:100d9c00000000001e0fe800500220009e007800aa
:100dac00808f5000dcff340030c2b3000080fa00aa
:040dbc00000006002d
:020000040000fa
:020000040001f9
:0457f8000ff90000a5
:020000040000fa
:020000040001f9
:0457fc007f3f0000eb
:00000001FF
